{
  "contractName": "Hasher",
  "abi": [
    {
      "constant": false,
      "inputs": [
        {
          "name": "winNum",
          "type": "uint256"
        }
      ],
      "name": "hashMe",
      "outputs": [
        {
          "name": "winhash",
          "type": "bytes32"
        }
      ],
      "payable": false,
      "stateMutability": "nonpayable",
      "type": "function"
    }
  ],
  "bytecode": "0x6060604052341561000f57600080fd5b60ce8061001d6000396000f300606060405260043610603f576000357c0100000000000000000000000000000000000000000000000000000000900463ffffffff16806328abb94e146044575b600080fd5b3415604e57600080fd5b606260048080359060200190919050506080565b60405180826000191660001916815260200191505060405180910390f35b60008160405180828152602001915050604051809103902090508090509190505600a165627a7a72305820bf54669b890dfe91b094c3d35352c7e69783fd17a3256da4d8375fcd10c72e700029",
  "source": "pragma solidity ^0.4.16;\n\n// this contract can be used by owner on his side to calculate the hash of winning number\ncontract Hasher {\n    function hashMe(uint256 winNum) public returns (bytes32 winhash) {\n        winhash = keccak256(winNum);\n        return winhash;\n    }\n}",
  "sourcePath": "/Users/sprasad/Desktop/Lottery/contracts/Hasher.sol",
  "compiler": {
    "name": "solc",
    "version": "0.4.18+commit.9cf6e910.Emscripten.clang"
  },
  "schemaVersion": "1.0.1",
  "updatedAt": "2018-04-02T01:02:24.327Z"
}