{
  "contractName": "Lottery",
  "abi": [
    {
      "constant": true,
      "inputs": [],
      "name": "getBalance",
      "outputs": [
        {
          "name": "balances",
          "type": "uint256"
        }
      ],
      "payable": false,
      "stateMutability": "view",
      "type": "function"
    },
    {
      "constant": false,
      "inputs": [
        {
          "name": "guess",
          "type": "uint256"
        }
      ],
      "name": "makeGuess",
      "outputs": [
        {
          "name": "success",
          "type": "bool"
        },
        {
          "name": "guessHash",
          "type": "bytes32"
        }
      ],
      "payable": false,
      "stateMutability": "nonpayable",
      "type": "function"
    },
    {
      "constant": true,
      "inputs": [],
      "name": "getGameStatus",
      "outputs": [
        {
          "name": "isGameClosed",
          "type": "bool"
        }
      ],
      "payable": false,
      "stateMutability": "view",
      "type": "function"
    },
    {
      "constant": true,
      "inputs": [],
      "name": "getWinHash",
      "outputs": [
        {
          "name": "",
          "type": "bytes32"
        }
      ],
      "payable": false,
      "stateMutability": "view",
      "type": "function"
    },
    {
      "constant": false,
      "inputs": [],
      "name": "closeGame",
      "outputs": [
        {
          "name": "",
          "type": "bool"
        }
      ],
      "payable": false,
      "stateMutability": "nonpayable",
      "type": "function"
    },
    {
      "constant": false,
      "inputs": [],
      "name": "acceptOwnership",
      "outputs": [],
      "payable": false,
      "stateMutability": "nonpayable",
      "type": "function"
    },
    {
      "constant": true,
      "inputs": [],
      "name": "getOwner",
      "outputs": [
        {
          "name": "currentOwner",
          "type": "address"
        }
      ],
      "payable": false,
      "stateMutability": "view",
      "type": "function"
    },
    {
      "constant": true,
      "inputs": [],
      "name": "owner",
      "outputs": [
        {
          "name": "",
          "type": "address"
        }
      ],
      "payable": false,
      "stateMutability": "view",
      "type": "function"
    },
    {
      "constant": true,
      "inputs": [],
      "name": "getWinner",
      "outputs": [
        {
          "name": "winner",
          "type": "address"
        }
      ],
      "payable": false,
      "stateMutability": "view",
      "type": "function"
    },
    {
      "constant": false,
      "inputs": [],
      "name": "getPrice",
      "outputs": [
        {
          "name": "success",
          "type": "bool"
        }
      ],
      "payable": false,
      "stateMutability": "nonpayable",
      "type": "function"
    },
    {
      "constant": false,
      "inputs": [],
      "name": "buyToken",
      "outputs": [
        {
          "name": "amount",
          "type": "uint256"
        }
      ],
      "payable": true,
      "stateMutability": "payable",
      "type": "function"
    },
    {
      "constant": true,
      "inputs": [],
      "name": "getLotteryValue",
      "outputs": [
        {
          "name": "lValue",
          "type": "uint256"
        }
      ],
      "payable": false,
      "stateMutability": "view",
      "type": "function"
    },
    {
      "constant": true,
      "inputs": [],
      "name": "newOwner",
      "outputs": [
        {
          "name": "",
          "type": "address"
        }
      ],
      "payable": false,
      "stateMutability": "view",
      "type": "function"
    },
    {
      "constant": false,
      "inputs": [
        {
          "name": "_newOwner",
          "type": "address"
        }
      ],
      "name": "transferOwnership",
      "outputs": [],
      "payable": false,
      "stateMutability": "nonpayable",
      "type": "function"
    },
    {
      "inputs": [
        {
          "name": "winHash",
          "type": "bytes32"
        }
      ],
      "payable": false,
      "stateMutability": "nonpayable",
      "type": "constructor"
    },
    {
      "anonymous": false,
      "inputs": [
        {
          "indexed": false,
          "name": "winAddress",
          "type": "address"
        }
      ],
      "name": "Winner",
      "type": "event"
    },
    {
      "anonymous": false,
      "inputs": [
        {
          "indexed": true,
          "name": "_from",
          "type": "address"
        },
        {
          "indexed": true,
          "name": "_to",
          "type": "address"
        }
      ],
      "name": "OwnershipTransferred",
      "type": "event"
    }
  ],
  "bytecode": "0x6060604052341561000f57600080fd5b604051602080610c8983398101604052808051906020019091905050336000806101000a81548173ffffffffffffffffffffffffffffffffffffffff021916908373ffffffffffffffffffffffffffffffffffffffff16021790555080600281600019169055506000600360146101000a81548160ff02191690831515021790555050610be8806100a16000396000f3006060604052600436106100d0576000357c0100000000000000000000000000000000000000000000000000000000900463ffffffff16806312065fe0146100d557806322666da6146100fe578063382396ee146101485780635504be5214610175578063786b844b146101a657806379ba5097146101d3578063893d20e8146101e85780638da5cb5b1461023d5780638e7ea5b21461029257806398d5fdca146102e7578063a482171914610314578063a680ea2e14610332578063d4ee1d901461035b578063f2fde38b146103b0575b600080fd5b34156100e057600080fd5b6100e86103e9565b6040518082815260200191505060405180910390f35b341561010957600080fd5b61011f6004808035906020019091905050610430565b604051808315151515815260200182600019166000191681526020019250505060405180910390f35b341561015357600080fd5b61015b6105e5565b604051808215151515815260200191505060405180910390f35b341561018057600080fd5b6101886105fc565b60405180826000191660001916815260200191505060405180910390f35b34156101b157600080fd5b6101b9610606565b604051808215151515815260200191505060405180910390f35b34156101de57600080fd5b6101e6610685565b005b34156101f357600080fd5b6101fb610824565b604051808273ffffffffffffffffffffffffffffffffffffffff1673ffffffffffffffffffffffffffffffffffffffff16815260200191505060405180910390f35b341561024857600080fd5b61025061084d565b604051808273ffffffffffffffffffffffffffffffffffffffff1673ffffffffffffffffffffffffffffffffffffffff16815260200191505060405180910390f35b341561029d57600080fd5b6102a5610872565b604051808273ffffffffffffffffffffffffffffffffffffffff1673ffffffffffffffffffffffffffffffffffffffff16815260200191505060405180910390f35b34156102f257600080fd5b6102fa61089c565b604051808215151515815260200191505060405180910390f35b61031c6109c1565b6040518082815260200191505060405180910390f35b341561033d57600080fd5b610345610a9c565b6040518082815260200191505060405180910390f35b341561036657600080fd5b61036e610abb565b604051808273ffffffffffffffffffffffffffffffffffffffff1673ffffffffffffffffffffffffffffffffffffffff16815260200191505060405180910390f35b34156103bb57600080fd5b6103e7600480803573ffffffffffffffffffffffffffffffffffffffff16906020019091905050610ae1565b005b6000600460003373ffffffffffffffffffffffffffffffffffffffff1673ffffffffffffffffffffffffffffffffffffffff16815260200190815260200160002054905090565b600080600360149054906101000a900460ff1615151561044f57600080fd5b6001600460003373ffffffffffffffffffffffffffffffffffffffff1673ffffffffffffffffffffffffffffffffffffffff168152602001908152602001600020541015151561049e57600080fd5b600460003373ffffffffffffffffffffffffffffffffffffffff1673ffffffffffffffffffffffffffffffffffffffff16815260200190815260200160002060008154809291906001900391905055506000915082604051808281526020019150506040518091039020905060025460001916816000191614156105e05733600360006101000a81548173ffffffffffffffffffffffffffffffffffffffff021916908373ffffffffffffffffffffffffffffffffffffffff1602179055507f745c90b656b4aafe296c8ca35aeacfe56cb96c90e1d320e5da643fff1051b6c033604051808273ffffffffffffffffffffffffffffffffffffffff1673ffffffffffffffffffffffffffffffffffffffff16815260200191505060405180910390a16001600360146101000a81548160ff021916908315150217905550600191505b915091565b6000600360149054906101000a900460ff16905090565b6000600254905090565b60008060009054906101000a900473ffffffffffffffffffffffffffffffffffffffff1673ffffffffffffffffffffffffffffffffffffffff163373ffffffffffffffffffffffffffffffffffffffff1614151561066357600080fd5b6001600360146101000a81548160ff0219169083151502179055506001905090565b600160009054906101000a900473ffffffffffffffffffffffffffffffffffffffff1673ffffffffffffffffffffffffffffffffffffffff163373ffffffffffffffffffffffffffffffffffffffff161415156106e157600080fd5b600160009054906101000a900473ffffffffffffffffffffffffffffffffffffffff1673ffffffffffffffffffffffffffffffffffffffff166000809054906101000a900473ffffffffffffffffffffffffffffffffffffffff1673ffffffffffffffffffffffffffffffffffffffff167f8be0079c531659141344cd1fd0a4f28419497f9722a3daafe3b4186f6b6457e060405160405180910390a3600160009054906101000a900473ffffffffffffffffffffffffffffffffffffffff166000806101000a81548173ffffffffffffffffffffffffffffffffffffffff021916908373ffffffffffffffffffffffffffffffffffffffff1602179055506000600160006101000a81548173ffffffffffffffffffffffffffffffffffffffff021916908373ffffffffffffffffffffffffffffffffffffffff160217905550565b60008060009054906101000a900473ffffffffffffffffffffffffffffffffffffffff16905090565b6000809054906101000a900473ffffffffffffffffffffffffffffffffffffffff1681565b6000600360009054906101000a900473ffffffffffffffffffffffffffffffffffffffff16905090565b600080600360149054906101000a900460ff1615156108ba57600080fd5b67016345785d8a00003073ffffffffffffffffffffffffffffffffffffffff16310390506000809054906101000a900473ffffffffffffffffffffffffffffffffffffffff1673ffffffffffffffffffffffffffffffffffffffff166108fc60028381151561092557fe5b049081150290604051600060405180830381858888f19350505050151561094b57600080fd5b600360009054906101000a900473ffffffffffffffffffffffffffffffffffffffff1673ffffffffffffffffffffffffffffffffffffffff166108fc60028381151561099357fe5b049081150290604051600060405180830381858888f1935050505015156109b957600080fd5b600191505090565b6000806000600360149054906101000a900460ff161515156109e257600080fd5b670de0b6b3a7640000348115156109f557fe5b04915081600460003373ffffffffffffffffffffffffffffffffffffffff1673ffffffffffffffffffffffffffffffffffffffff16815260200190815260200160002060008282540192505081905550670de0b6b3a76400008202340390503373ffffffffffffffffffffffffffffffffffffffff166108fc829081150290604051600060405180830381858888f193505050501515610a9457600080fd5b819250505090565b60003073ffffffffffffffffffffffffffffffffffffffff1631905090565b600160009054906101000a900473ffffffffffffffffffffffffffffffffffffffff1681565b6000809054906101000a900473ffffffffffffffffffffffffffffffffffffffff1673ffffffffffffffffffffffffffffffffffffffff163373ffffffffffffffffffffffffffffffffffffffff16141515610b3c57600080fd5b600073ffffffffffffffffffffffffffffffffffffffff168173ffffffffffffffffffffffffffffffffffffffff1614151515610b7857600080fd5b80600160006101000a81548173ffffffffffffffffffffffffffffffffffffffff021916908373ffffffffffffffffffffffffffffffffffffffff160217905550505600a165627a7a72305820893a1d66980f80152eb2af92138c2e1a75e79be994076637077091f35a4cb3ab0029",
  "source": "pragma solidity ^0.4.16;\n\ncontract Ownable {\n\taddress public owner;\n\taddress public newOwner;\n\n\tevent OwnershipTransferred(address indexed _from, address indexed _to);\n\n\tfunction Ownable() public {\n\t\towner = msg.sender;\n\t}\n\n\tfunction getOwner() public constant returns (address currentOwner) {\n\t\treturn owner;\n\t}\n\n\tmodifier onlyOwner() {\n\t\trequire(msg.sender == owner);\n\t\t_;\n\t}\n\n\t// Ownership can be transfered by current owner only\n    // New owner should be a non-zero address\n\tfunction transferOwnership(address _newOwner) onlyOwner {\n\t\trequire(_newOwner != address(0));\n\t\tnewOwner = _newOwner;\n\t}\n\n\t// Ownership can be accepted by the new onwer only\n    // Fires an Ownership transfer event\n    function acceptOwnership() public {\n        require(msg.sender == newOwner);\n        OwnershipTransferred(owner, newOwner);\n        owner = newOwner;\n        newOwner = address(0);\n    }\n\n}\n\ncontract Lottery is Ownable {\n\tbytes32 winningGuess; // hash of the winning guess\n\t//address[] winnerlist; // list of winners\n\t//uint256 winnersNum;\n\taddress winnerAddress;\n\tbool isClosed; // tells if the game is closed\n\tmapping (address=>uint256) balance; // token balance for users\n\n\tevent Winner(address winAddress); // emit this event when a users guesses correctly\n\n\tfunction Lottery(bytes32 winHash) public {\n\t\t// just use a simple contract (different from this) to get sha3 of winning number to keep the number completely out of this contract\n\t\t// copy that hash while calling this contructor (directly pass int and not the string)\n\t\twinningGuess = winHash;\n\t\tisClosed = false;\n\t}\n\t\n\tfunction getBalance() public view returns (uint256 balances){\n\t    return (balance[msg.sender]);\n\t}\n\n\t// This function takes ether and transfers participation tokens to users\n\tfunction buyToken() public payable returns (uint256 amount) {\n\n\t\trequire(!isClosed);  //game must not be closed\n\t\tuint256 tokens = (msg.value) / (1 ether);\n\n\t\tbalance[msg.sender] += tokens;\n\t\tuint256 sendBack = msg.value - (tokens * (1 ether));\n\t\tmsg.sender.transfer(sendBack);\n\t\treturn tokens;\n\n\t}\n\n\t// This function takes a guess and deducts a token\n\tfunction makeGuess(uint256 guess) public returns (bool success, bytes32 guessHash) {\n\t\trequire(!isClosed);\n\t\trequire(balance[msg.sender] >= 1);\n\t\tbalance[msg.sender] --;\n        success = false;\n\t\tguessHash = keccak256(guess);\n\t\tif(guessHash == winningGuess) {\n\t\t\t//winnersNum = winnerlist.push(msg.sender);\n\t\t\twinnerAddress = msg.sender;\n\t\t\tWinner(msg.sender);\n\t\t\tisClosed = true;\n\t\t\tsuccess = true;\n\t\t}\n\t}\n\t\n\tfunction getWinHash() public view returns (bytes32) {\n\t    return winningGuess;\n\t}\n\n\tfunction closeGame() onlyOwner returns (bool) {\n\t\tisClosed = true;\n\t\treturn true;\n\t}\n\n\tfunction getWinner() public view returns (address winner) {\n\t\treturn winnerAddress;\n\t}\n\n\tfunction getGameStatus() public view returns (bool isGameClosed) {\n\t\treturn isClosed;\n\t}\n\n\tfunction getLotteryValue() public view returns (uint256 lValue) {\n\t\tlValue = this.balance;\n\t}\n\n\tfunction getPrice() public returns (bool success) {\n\t\trequire(isClosed);\n\t\tuint256 amount = this.balance - 0.1 ether; //keep some for gas cost of contract\n\t\towner.transfer(amount/2);\n\t\twinnerAddress.transfer(amount/2);\n\t\treturn true;\n\t}\n\n}\n",
  "sourcePath": "/Users/sprasad/Desktop/Lottery/contracts/Lottery.sol",
  "compiler": {
    "name": "solc",
    "version": "0.4.18+commit.9cf6e910.Emscripten.clang"
  },
  "schemaVersion": "1.0.1",
  "updatedAt": "2018-04-02T01:02:24.328Z"
}