{
  "contractName": "Ownable",
  "abi": [
    {
      "constant": false,
      "inputs": [],
      "name": "acceptOwnership",
      "outputs": [],
      "payable": false,
      "stateMutability": "nonpayable",
      "type": "function"
    },
    {
      "constant": true,
      "inputs": [],
      "name": "getOwner",
      "outputs": [
        {
          "name": "currentOwner",
          "type": "address"
        }
      ],
      "payable": false,
      "stateMutability": "view",
      "type": "function"
    },
    {
      "constant": true,
      "inputs": [],
      "name": "owner",
      "outputs": [
        {
          "name": "",
          "type": "address"
        }
      ],
      "payable": false,
      "stateMutability": "view",
      "type": "function"
    },
    {
      "constant": true,
      "inputs": [],
      "name": "newOwner",
      "outputs": [
        {
          "name": "",
          "type": "address"
        }
      ],
      "payable": false,
      "stateMutability": "view",
      "type": "function"
    },
    {
      "constant": false,
      "inputs": [
        {
          "name": "_newOwner",
          "type": "address"
        }
      ],
      "name": "transferOwnership",
      "outputs": [],
      "payable": false,
      "stateMutability": "nonpayable",
      "type": "function"
    },
    {
      "inputs": [],
      "payable": false,
      "stateMutability": "nonpayable",
      "type": "constructor"
    },
    {
      "anonymous": false,
      "inputs": [
        {
          "indexed": true,
          "name": "_from",
          "type": "address"
        },
        {
          "indexed": true,
          "name": "_to",
          "type": "address"
        }
      ],
      "name": "OwnershipTransferred",
      "type": "event"
    }
  ],
  "bytecode": "0x6060604052341561000f57600080fd5b336000806101000a81548173ffffffffffffffffffffffffffffffffffffffff021916908373ffffffffffffffffffffffffffffffffffffffff1602179055506104d98061005e6000396000f30060606040526004361061006d576000357c0100000000000000000000000000000000000000000000000000000000900463ffffffff16806379ba509714610072578063893d20e8146100875780638da5cb5b146100dc578063d4ee1d9014610131578063f2fde38b14610186575b600080fd5b341561007d57600080fd5b6100856101bf565b005b341561009257600080fd5b61009a61035e565b604051808273ffffffffffffffffffffffffffffffffffffffff1673ffffffffffffffffffffffffffffffffffffffff16815260200191505060405180910390f35b34156100e757600080fd5b6100ef610387565b604051808273ffffffffffffffffffffffffffffffffffffffff1673ffffffffffffffffffffffffffffffffffffffff16815260200191505060405180910390f35b341561013c57600080fd5b6101446103ac565b604051808273ffffffffffffffffffffffffffffffffffffffff1673ffffffffffffffffffffffffffffffffffffffff16815260200191505060405180910390f35b341561019157600080fd5b6101bd600480803573ffffffffffffffffffffffffffffffffffffffff169060200190919050506103d2565b005b600160009054906101000a900473ffffffffffffffffffffffffffffffffffffffff1673ffffffffffffffffffffffffffffffffffffffff163373ffffffffffffffffffffffffffffffffffffffff1614151561021b57600080fd5b600160009054906101000a900473ffffffffffffffffffffffffffffffffffffffff1673ffffffffffffffffffffffffffffffffffffffff166000809054906101000a900473ffffffffffffffffffffffffffffffffffffffff1673ffffffffffffffffffffffffffffffffffffffff167f8be0079c531659141344cd1fd0a4f28419497f9722a3daafe3b4186f6b6457e060405160405180910390a3600160009054906101000a900473ffffffffffffffffffffffffffffffffffffffff166000806101000a81548173ffffffffffffffffffffffffffffffffffffffff021916908373ffffffffffffffffffffffffffffffffffffffff1602179055506000600160006101000a81548173ffffffffffffffffffffffffffffffffffffffff021916908373ffffffffffffffffffffffffffffffffffffffff160217905550565b60008060009054906101000a900473ffffffffffffffffffffffffffffffffffffffff16905090565b6000809054906101000a900473ffffffffffffffffffffffffffffffffffffffff1681565b600160009054906101000a900473ffffffffffffffffffffffffffffffffffffffff1681565b6000809054906101000a900473ffffffffffffffffffffffffffffffffffffffff1673ffffffffffffffffffffffffffffffffffffffff163373ffffffffffffffffffffffffffffffffffffffff1614151561042d57600080fd5b600073ffffffffffffffffffffffffffffffffffffffff168173ffffffffffffffffffffffffffffffffffffffff161415151561046957600080fd5b80600160006101000a81548173ffffffffffffffffffffffffffffffffffffffff021916908373ffffffffffffffffffffffffffffffffffffffff160217905550505600a165627a7a723058202f35d6fee07c81dff03c40272e679450efba4b31fff8cec8ebff5109a835452d0029",
  "source": "pragma solidity ^0.4.16;\n\ncontract Ownable {\n\taddress public owner;\n\taddress public newOwner;\n\n\tevent OwnershipTransferred(address indexed _from, address indexed _to);\n\n\tfunction Ownable() public {\n\t\towner = msg.sender;\n\t}\n\n\tfunction getOwner() public constant returns (address currentOwner) {\n\t\treturn owner;\n\t}\n\n\tmodifier onlyOwner() {\n\t\trequire(msg.sender == owner);\n\t\t_;\n\t}\n\n\t// Ownership can be transfered by current owner only\n    // New owner should be a non-zero address\n\tfunction transferOwnership(address _newOwner) onlyOwner {\n\t\trequire(_newOwner != address(0));\n\t\tnewOwner = _newOwner;\n\t}\n\n\t// Ownership can be accepted by the new onwer only\n    // Fires an Ownership transfer event\n    function acceptOwnership() public {\n        require(msg.sender == newOwner);\n        OwnershipTransferred(owner, newOwner);\n        owner = newOwner;\n        newOwner = address(0);\n    }\n\n}\n\ncontract Lottery is Ownable {\n\tbytes32 winningGuess; // hash of the winning guess\n\t//address[] winnerlist; // list of winners\n\t//uint256 winnersNum;\n\taddress winnerAddress;\n\tbool isClosed; // tells if the game is closed\n\tmapping (address=>uint256) balance; // token balance for users\n\n\tevent Winner(address winAddress); // emit this event when a users guesses correctly\n\n\tfunction Lottery(bytes32 winHash) public {\n\t\t// just use a simple contract (different from this) to get sha3 of winning number to keep the number completely out of this contract\n\t\t// copy that hash while calling this contructor (directly pass int and not the string)\n\t\twinningGuess = winHash;\n\t\tisClosed = false;\n\t}\n\t\n\tfunction getBalance() public view returns (uint256 balances){\n\t    return (balance[msg.sender]);\n\t}\n\n\t// This function takes ether and transfers participation tokens to users\n\tfunction buyToken() public payable returns (uint256 amount) {\n\n\t\trequire(!isClosed);  //game must not be closed\n\t\tuint256 tokens = (msg.value) / (1 ether);\n\n\t\tbalance[msg.sender] += tokens;\n\t\tuint256 sendBack = msg.value - (tokens * (1 ether));\n\t\tmsg.sender.transfer(sendBack);\n\t\treturn tokens;\n\n\t}\n\n\t// This function takes a guess and deducts a token\n\tfunction makeGuess(uint256 guess) public returns (bool success, bytes32 guessHash) {\n\t\trequire(!isClosed);\n\t\trequire(balance[msg.sender] >= 1);\n\t\tbalance[msg.sender] --;\n        success = false;\n\t\tguessHash = keccak256(guess);\n\t\tif(guessHash == winningGuess) {\n\t\t\t//winnersNum = winnerlist.push(msg.sender);\n\t\t\twinnerAddress = msg.sender;\n\t\t\tWinner(msg.sender);\n\t\t\tisClosed = true;\n\t\t\tsuccess = true;\n\t\t}\n\t}\n\t\n\tfunction getWinHash() public view returns (bytes32) {\n\t    return winningGuess;\n\t}\n\n\tfunction closeGame() onlyOwner returns (bool) {\n\t\tisClosed = true;\n\t\treturn true;\n\t}\n\n\tfunction getWinner() public view returns (address winner) {\n\t\treturn winnerAddress;\n\t}\n\n\tfunction getGameStatus() public view returns (bool isGameClosed) {\n\t\treturn isClosed;\n\t}\n\n\tfunction getLotteryValue() public view returns (uint256 lValue) {\n\t\tlValue = this.balance;\n\t}\n\n\tfunction getPrice() public returns (bool success) {\n\t\trequire(isClosed);\n\t\tuint256 amount = this.balance - 0.1 ether; //keep some for gas cost of contract\n\t\towner.transfer(amount/2);\n\t\twinnerAddress.transfer(amount/2);\n\t\treturn true;\n\t}\n\n}\n",
  "sourcePath": "/Users/sprasad/Desktop/Lottery/contracts/Lottery.sol",
  "compiler": {
    "name": "solc",
    "version": "0.4.18+commit.9cf6e910.Emscripten.clang"
  },
  "schemaVersion": "1.0.1",
  "updatedAt": "2018-04-02T01:02:24.328Z"
}